{
	"backend/contracts/Lock.sol": {
		"Lock": {
			"abi": [
				{
					"inputs": [
						{
							"internalType": "uint256",
							"name": "_unlockTime",
							"type": "uint256"
						}
					],
					"stateMutability": "payable",
					"type": "constructor"
				},
				{
					"anonymous": false,
					"inputs": [
						{
							"indexed": false,
							"internalType": "uint256",
							"name": "amount",
							"type": "uint256"
						},
						{
							"indexed": false,
							"internalType": "uint256",
							"name": "when",
							"type": "uint256"
						}
					],
					"name": "Withdrawal",
					"type": "event"
				},
				{
					"inputs": [],
					"name": "owner",
					"outputs": [
						{
							"internalType": "address payable",
							"name": "",
							"type": "address"
						}
					],
					"stateMutability": "view",
					"type": "function"
				},
				{
					"inputs": [],
					"name": "unlockTime",
					"outputs": [
						{
							"internalType": "uint256",
							"name": "",
							"type": "uint256"
						}
					],
					"stateMutability": "view",
					"type": "function"
				},
				{
					"inputs": [],
					"name": "withdraw",
					"outputs": [],
					"stateMutability": "nonpayable",
					"type": "function"
				}
			],
			"devdoc": {
				"kind": "dev",
				"methods": {},
				"version": 1
			},
			"evm": {
				"assembly": "    /* \"backend/contracts/Lock.sol\":141:1007  contract Lock {... */\n  mstore(0x40, 0x80)\n    /* \"backend/contracts/Lock.sol\":271:509  constructor(uint _unlockTime) payable {... */\n  mload(0x40)\n  sub(codesize, bytecodeSize)\n  dup1\n  bytecodeSize\n  dup4\n  codecopy\n  dup2\n  dup2\n  add\n  0x40\n  mstore\n  dup2\n  add\n  swap1\n  tag_1\n  swap2\n  swap1\n  tag_2\n  jump\t// in\ntag_1:\n    /* \"backend/contracts/Lock.sol\":358:369  _unlockTime */\n  dup1\n    /* \"backend/contracts/Lock.sol\":340:355  block.timestamp */\n  timestamp\n    /* \"backend/contracts/Lock.sol\":340:369  block.timestamp < _unlockTime */\n  lt\n    /* \"backend/contracts/Lock.sol\":319:430  require(... */\n  tag_5\n  jumpi\n  mload(0x40)\n  0x08c379a000000000000000000000000000000000000000000000000000000000\n  dup2\n  mstore\n  0x04\n  add\n  tag_6\n  swap1\n  tag_7\n  jump\t// in\ntag_6:\n  mload(0x40)\n  dup1\n  swap2\n  sub\n  swap1\n  revert\ntag_5:\n    /* \"backend/contracts/Lock.sol\":454:465  _unlockTime */\n  dup1\n    /* \"backend/contracts/Lock.sol\":441:451  unlockTime */\n  0x00\n    /* \"backend/contracts/Lock.sol\":441:465  unlockTime = _unlockTime */\n  dup2\n  swap1\n  sstore\n  pop\n    /* \"backend/contracts/Lock.sol\":491:501  msg.sender */\n  caller\n    /* \"backend/contracts/Lock.sol\":475:480  owner */\n  0x01\n  0x00\n    /* \"backend/contracts/Lock.sol\":475:502  owner = payable(msg.sender) */\n  0x0100\n  exp\n  dup2\n  sload\n  dup2\n  0xffffffffffffffffffffffffffffffffffffffff\n  mul\n  not\n  and\n  swap1\n  dup4\n  0xffffffffffffffffffffffffffffffffffffffff\n  and\n  mul\n  or\n  swap1\n  sstore\n  pop\n    /* \"backend/contracts/Lock.sol\":271:509  constructor(uint _unlockTime) payable {... */\n  pop\n    /* \"backend/contracts/Lock.sol\":141:1007  contract Lock {... */\n  jump(tag_8)\n    /* \"#utility.yul\":88:205   */\ntag_10:\n    /* \"#utility.yul\":197:198   */\n  0x00\n    /* \"#utility.yul\":194:195   */\n  dup1\n    /* \"#utility.yul\":187:199   */\n  revert\n    /* \"#utility.yul\":334:411   */\ntag_12:\n    /* \"#utility.yul\":371:378   */\n  0x00\n    /* \"#utility.yul\":400:405   */\n  dup2\n    /* \"#utility.yul\":389:405   */\n  swap1\n  pop\n    /* \"#utility.yul\":334:411   */\n  swap2\n  swap1\n  pop\n  jump\t// out\n    /* \"#utility.yul\":417:539   */\ntag_13:\n    /* \"#utility.yul\":490:514   */\n  tag_24\n    /* \"#utility.yul\":508:513   */\n  dup2\n    /* \"#utility.yul\":490:514   */\n  tag_12\n  jump\t// in\ntag_24:\n    /* \"#utility.yul\":483:488   */\n  dup2\n    /* \"#utility.yul\":480:515   */\n  eq\n    /* \"#utility.yul\":470:533   */\n  tag_25\n  jumpi\n    /* \"#utility.yul\":529:530   */\n  0x00\n    /* \"#utility.yul\":526:527   */\n  dup1\n    /* \"#utility.yul\":519:531   */\n  revert\n    /* \"#utility.yul\":470:533   */\ntag_25:\n    /* \"#utility.yul\":417:539   */\n  pop\n  jump\t// out\n    /* \"#utility.yul\":545:688   */\ntag_14:\n    /* \"#utility.yul\":602:607   */\n  0x00\n    /* \"#utility.yul\":633:639   */\n  dup2\n    /* \"#utility.yul\":627:640   */\n  mload\n    /* \"#utility.yul\":618:640   */\n  swap1\n  pop\n    /* \"#utility.yul\":649:682   */\n  tag_27\n    /* \"#utility.yul\":676:681   */\n  dup2\n    /* \"#utility.yul\":649:682   */\n  tag_13\n  jump\t// in\ntag_27:\n    /* \"#utility.yul\":545:688   */\n  swap3\n  swap2\n  pop\n  pop\n  jump\t// out\n    /* \"#utility.yul\":694:1045   */\ntag_2:\n    /* \"#utility.yul\":764:770   */\n  0x00\n    /* \"#utility.yul\":813:815   */\n  0x20\n    /* \"#utility.yul\":801:810   */\n  dup3\n    /* \"#utility.yul\":792:799   */\n  dup5\n    /* \"#utility.yul\":788:811   */\n  sub\n    /* \"#utility.yul\":784:816   */\n  slt\n    /* \"#utility.yul\":781:900   */\n  iszero\n  tag_29\n  jumpi\n    /* \"#utility.yul\":819:898   */\n  tag_30\n  tag_10\n  jump\t// in\ntag_30:\n    /* \"#utility.yul\":781:900   */\ntag_29:\n    /* \"#utility.yul\":939:940   */\n  0x00\n    /* \"#utility.yul\":964:1028   */\n  tag_31\n    /* \"#utility.yul\":1020:1027   */\n  dup5\n    /* \"#utility.yul\":1011:1017   */\n  dup3\n    /* \"#utility.yul\":1000:1009   */\n  dup6\n    /* \"#utility.yul\":996:1018   */\n  add\n    /* \"#utility.yul\":964:1028   */\n  tag_14\n  jump\t// in\ntag_31:\n    /* \"#utility.yul\":954:1028   */\n  swap2\n  pop\n    /* \"#utility.yul\":910:1038   */\n  pop\n    /* \"#utility.yul\":694:1045   */\n  swap3\n  swap2\n  pop\n  pop\n  jump\t// out\n    /* \"#utility.yul\":1051:1220   */\ntag_15:\n    /* \"#utility.yul\":1135:1146   */\n  0x00\n    /* \"#utility.yul\":1169:1175   */\n  dup3\n    /* \"#utility.yul\":1164:1167   */\n  dup3\n    /* \"#utility.yul\":1157:1176   */\n  mstore\n    /* \"#utility.yul\":1209:1213   */\n  0x20\n    /* \"#utility.yul\":1204:1207   */\n  dup3\n    /* \"#utility.yul\":1200:1214   */\n  add\n    /* \"#utility.yul\":1185:1214   */\n  swap1\n  pop\n    /* \"#utility.yul\":1051:1220   */\n  swap3\n  swap2\n  pop\n  pop\n  jump\t// out\n    /* \"#utility.yul\":1226:1448   */\ntag_16:\n    /* \"#utility.yul\":1366:1400   */\n  0x556e6c6f636b2074696d652073686f756c6420626520696e2074686520667574\n    /* \"#utility.yul\":1362:1363   */\n  0x00\n    /* \"#utility.yul\":1354:1360   */\n  dup3\n    /* \"#utility.yul\":1350:1364   */\n  add\n    /* \"#utility.yul\":1343:1401   */\n  mstore\n    /* \"#utility.yul\":1435:1440   */\n  0x7572650000000000000000000000000000000000000000000000000000000000\n    /* \"#utility.yul\":1430:1432   */\n  0x20\n    /* \"#utility.yul\":1422:1428   */\n  dup3\n    /* \"#utility.yul\":1418:1433   */\n  add\n    /* \"#utility.yul\":1411:1441   */\n  mstore\n    /* \"#utility.yul\":1226:1448   */\n  pop\n  jump\t// out\n    /* \"#utility.yul\":1454:1820   */\ntag_17:\n    /* \"#utility.yul\":1596:1599   */\n  0x00\n    /* \"#utility.yul\":1617:1684   */\n  tag_35\n    /* \"#utility.yul\":1681:1683   */\n  0x23\n    /* \"#utility.yul\":1676:1679   */\n  dup4\n    /* \"#utility.yul\":1617:1684   */\n  tag_15\n  jump\t// in\ntag_35:\n    /* \"#utility.yul\":1610:1684   */\n  swap2\n  pop\n    /* \"#utility.yul\":1693:1786   */\n  tag_36\n    /* \"#utility.yul\":1782:1785   */\n  dup3\n    /* \"#utility.yul\":1693:1786   */\n  tag_16\n  jump\t// in\ntag_36:\n    /* \"#utility.yul\":1811:1813   */\n  0x40\n    /* \"#utility.yul\":1806:1809   */\n  dup3\n    /* \"#utility.yul\":1802:1814   */\n  add\n    /* \"#utility.yul\":1795:1814   */\n  swap1\n  pop\n    /* \"#utility.yul\":1454:1820   */\n  swap2\n  swap1\n  pop\n  jump\t// out\n    /* \"#utility.yul\":1826:2245   */\ntag_7:\n    /* \"#utility.yul\":1992:1996   */\n  0x00\n    /* \"#utility.yul\":2030:2032   */\n  0x20\n    /* \"#utility.yul\":2019:2028   */\n  dup3\n    /* \"#utility.yul\":2015:2033   */\n  add\n    /* \"#utility.yul\":2007:2033   */\n  swap1\n  pop\n    /* \"#utility.yul\":2079:2088   */\n  dup2\n    /* \"#utility.yul\":2073:2077   */\n  dup2\n    /* \"#utility.yul\":2069:2089   */\n  sub\n    /* \"#utility.yul\":2065:2066   */\n  0x00\n    /* \"#utility.yul\":2054:2063   */\n  dup4\n    /* \"#utility.yul\":2050:2067   */\n  add\n    /* \"#utility.yul\":2043:2090   */\n  mstore\n    /* \"#utility.yul\":2107:2238   */\n  tag_38\n    /* \"#utility.yul\":2233:2237   */\n  dup2\n    /* \"#utility.yul\":2107:2238   */\n  tag_17\n  jump\t// in\ntag_38:\n    /* \"#utility.yul\":2099:2238   */\n  swap1\n  pop\n    /* \"#utility.yul\":1826:2245   */\n  swap2\n  swap1\n  pop\n  jump\t// out\n    /* \"backend/contracts/Lock.sol\":141:1007  contract Lock {... */\ntag_8:\n  dataSize(sub_0)\n  dup1\n  dataOffset(sub_0)\n  0x00\n  codecopy\n  0x00\n  return\nstop\n\nsub_0: assembly {\n        /* \"backend/contracts/Lock.sol\":141:1007  contract Lock {... */\n      mstore(0x40, 0x80)\n      callvalue\n      dup1\n      iszero\n      tag_1\n      jumpi\n      0x00\n      dup1\n      revert\n    tag_1:\n      pop\n      jumpi(tag_2, lt(calldatasize, 0x04))\n      shr(0xe0, calldataload(0x00))\n      dup1\n      0x251c1aa3\n      eq\n      tag_3\n      jumpi\n      dup1\n      0x3ccfd60b\n      eq\n      tag_4\n      jumpi\n      dup1\n      0x8da5cb5b\n      eq\n      tag_5\n      jumpi\n    tag_2:\n      0x00\n      dup1\n      revert\n        /* \"backend/contracts/Lock.sol\":161:183  uint public unlockTime */\n    tag_3:\n      tag_6\n      tag_7\n      jump\t// in\n    tag_6:\n      mload(0x40)\n      tag_8\n      swap2\n      swap1\n      tag_9\n      jump\t// in\n    tag_8:\n      mload(0x40)\n      dup1\n      swap2\n      sub\n      swap1\n      return\n        /* \"backend/contracts/Lock.sol\":515:1005  function withdraw() public {... */\n    tag_4:\n      tag_10\n      tag_11\n      jump\t// in\n    tag_10:\n      stop\n        /* \"backend/contracts/Lock.sol\":189:217  address payable public owner */\n    tag_5:\n      tag_12\n      tag_13\n      jump\t// in\n    tag_12:\n      mload(0x40)\n      tag_14\n      swap2\n      swap1\n      tag_15\n      jump\t// in\n    tag_14:\n      mload(0x40)\n      dup1\n      swap2\n      sub\n      swap1\n      return\n        /* \"backend/contracts/Lock.sol\":161:183  uint public unlockTime */\n    tag_7:\n      sload(0x00)\n      dup2\n      jump\t// out\n        /* \"backend/contracts/Lock.sol\":515:1005  function withdraw() public {... */\n    tag_11:\n        /* \"backend/contracts/Lock.sol\":785:795  unlockTime */\n      sload(0x00)\n        /* \"backend/contracts/Lock.sol\":766:781  block.timestamp */\n      timestamp\n        /* \"backend/contracts/Lock.sol\":766:795  block.timestamp >= unlockTime */\n      lt\n      iszero\n        /* \"backend/contracts/Lock.sol\":758:822  require(block.timestamp >= unlockTime, \"You can't withdraw yet\") */\n      tag_17\n      jumpi\n      mload(0x40)\n      0x08c379a000000000000000000000000000000000000000000000000000000000\n      dup2\n      mstore\n      0x04\n      add\n      tag_18\n      swap1\n      tag_19\n      jump\t// in\n    tag_18:\n      mload(0x40)\n      dup1\n      swap2\n      sub\n      swap1\n      revert\n    tag_17:\n        /* \"backend/contracts/Lock.sol\":854:859  owner */\n      0x01\n      0x00\n      swap1\n      sload\n      swap1\n      0x0100\n      exp\n      swap1\n      div\n      0xffffffffffffffffffffffffffffffffffffffff\n      and\n        /* \"backend/contracts/Lock.sol\":840:859  msg.sender == owner */\n      0xffffffffffffffffffffffffffffffffffffffff\n      and\n        /* \"backend/contracts/Lock.sol\":840:850  msg.sender */\n      caller\n        /* \"backend/contracts/Lock.sol\":840:859  msg.sender == owner */\n      0xffffffffffffffffffffffffffffffffffffffff\n      and\n      eq\n        /* \"backend/contracts/Lock.sol\":832:884  require(msg.sender == owner, \"You aren't the owner\") */\n      tag_20\n      jumpi\n      mload(0x40)\n      0x08c379a000000000000000000000000000000000000000000000000000000000\n      dup2\n      mstore\n      0x04\n      add\n      tag_21\n      swap1\n      tag_22\n      jump\t// in\n    tag_21:\n      mload(0x40)\n      dup1\n      swap2\n      sub\n      swap1\n      revert\n    tag_20:\n        /* \"backend/contracts/Lock.sol\":900:950  Withdrawal(address(this).balance, block.timestamp) */\n      0xbf2ed60bd5b5965d685680c01195c9514e4382e28e3a5a2d2d5244bf59411b93\n        /* \"backend/contracts/Lock.sol\":911:932  address(this).balance */\n      selfbalance\n        /* \"backend/contracts/Lock.sol\":934:949  block.timestamp */\n      timestamp\n        /* \"backend/contracts/Lock.sol\":900:950  Withdrawal(address(this).balance, block.timestamp) */\n      mload(0x40)\n      tag_23\n      swap3\n      swap2\n      swap1\n      tag_24\n      jump\t// in\n    tag_23:\n      mload(0x40)\n      dup1\n      swap2\n      sub\n      swap1\n      log1\n        /* \"backend/contracts/Lock.sol\":961:966  owner */\n      0x01\n      0x00\n      swap1\n      sload\n      swap1\n      0x0100\n      exp\n      swap1\n      div\n      0xffffffffffffffffffffffffffffffffffffffff\n      and\n        /* \"backend/contracts/Lock.sol\":961:975  owner.transfer */\n      0xffffffffffffffffffffffffffffffffffffffff\n      and\n        /* \"backend/contracts/Lock.sol\":961:998  owner.transfer(address(this).balance) */\n      0x08fc\n        /* \"backend/contracts/Lock.sol\":976:997  address(this).balance */\n      selfbalance\n        /* \"backend/contracts/Lock.sol\":961:998  owner.transfer(address(this).balance) */\n      swap1\n      dup2\n      iszero\n      mul\n      swap1\n      mload(0x40)\n      0x00\n      mload(0x40)\n      dup1\n      dup4\n      sub\n      dup2\n      dup6\n      dup9\n      dup9\n      call\n      swap4\n      pop\n      pop\n      pop\n      pop\n      iszero\n      dup1\n      iszero\n      tag_26\n      jumpi\n      returndatasize\n      0x00\n      dup1\n      returndatacopy\n      revert(0x00, returndatasize)\n    tag_26:\n      pop\n        /* \"backend/contracts/Lock.sol\":515:1005  function withdraw() public {... */\n      jump\t// out\n        /* \"backend/contracts/Lock.sol\":189:217  address payable public owner */\n    tag_13:\n      0x01\n      0x00\n      swap1\n      sload\n      swap1\n      0x0100\n      exp\n      swap1\n      div\n      0xffffffffffffffffffffffffffffffffffffffff\n      and\n      dup2\n      jump\t// out\n        /* \"#utility.yul\":7:84   */\n    tag_27:\n        /* \"#utility.yul\":44:51   */\n      0x00\n        /* \"#utility.yul\":73:78   */\n      dup2\n        /* \"#utility.yul\":62:78   */\n      swap1\n      pop\n        /* \"#utility.yul\":7:84   */\n      swap2\n      swap1\n      pop\n      jump\t// out\n        /* \"#utility.yul\":90:208   */\n    tag_28:\n        /* \"#utility.yul\":177:201   */\n      tag_40\n        /* \"#utility.yul\":195:200   */\n      dup2\n        /* \"#utility.yul\":177:201   */\n      tag_27\n      jump\t// in\n    tag_40:\n        /* \"#utility.yul\":172:175   */\n      dup3\n        /* \"#utility.yul\":165:202   */\n      mstore\n        /* \"#utility.yul\":90:208   */\n      pop\n      pop\n      jump\t// out\n        /* \"#utility.yul\":214:436   */\n    tag_9:\n        /* \"#utility.yul\":307:311   */\n      0x00\n        /* \"#utility.yul\":345:347   */\n      0x20\n        /* \"#utility.yul\":334:343   */\n      dup3\n        /* \"#utility.yul\":330:348   */\n      add\n        /* \"#utility.yul\":322:348   */\n      swap1\n      pop\n        /* \"#utility.yul\":358:429   */\n      tag_42\n        /* \"#utility.yul\":426:427   */\n      0x00\n        /* \"#utility.yul\":415:424   */\n      dup4\n        /* \"#utility.yul\":411:428   */\n      add\n        /* \"#utility.yul\":402:408   */\n      dup5\n        /* \"#utility.yul\":358:429   */\n      tag_28\n      jump\t// in\n    tag_42:\n        /* \"#utility.yul\":214:436   */\n      swap3\n      swap2\n      pop\n      pop\n      jump\t// out\n        /* \"#utility.yul\":442:568   */\n    tag_29:\n        /* \"#utility.yul\":479:486   */\n      0x00\n        /* \"#utility.yul\":519:561   */\n      0xffffffffffffffffffffffffffffffffffffffff\n        /* \"#utility.yul\":512:517   */\n      dup3\n        /* \"#utility.yul\":508:562   */\n      and\n        /* \"#utility.yul\":497:562   */\n      swap1\n      pop\n        /* \"#utility.yul\":442:568   */\n      swap2\n      swap1\n      pop\n      jump\t// out\n        /* \"#utility.yul\":574:678   */\n    tag_30:\n        /* \"#utility.yul\":619:626   */\n      0x00\n        /* \"#utility.yul\":648:672   */\n      tag_45\n        /* \"#utility.yul\":666:671   */\n      dup3\n        /* \"#utility.yul\":648:672   */\n      tag_29\n      jump\t// in\n    tag_45:\n        /* \"#utility.yul\":637:672   */\n      swap1\n      pop\n        /* \"#utility.yul\":574:678   */\n      swap2\n      swap1\n      pop\n      jump\t// out\n        /* \"#utility.yul\":684:826   */\n    tag_31:\n        /* \"#utility.yul\":787:819   */\n      tag_47\n        /* \"#utility.yul\":813:818   */\n      dup2\n        /* \"#utility.yul\":787:819   */\n      tag_30\n      jump\t// in\n    tag_47:\n        /* \"#utility.yul\":782:785   */\n      dup3\n        /* \"#utility.yul\":775:820   */\n      mstore\n        /* \"#utility.yul\":684:826   */\n      pop\n      pop\n      jump\t// out\n        /* \"#utility.yul\":832:1086   */\n    tag_15:\n        /* \"#utility.yul\":941:945   */\n      0x00\n        /* \"#utility.yul\":979:981   */\n      0x20\n        /* \"#utility.yul\":968:977   */\n      dup3\n        /* \"#utility.yul\":964:982   */\n      add\n        /* \"#utility.yul\":956:982   */\n      swap1\n      pop\n        /* \"#utility.yul\":992:1079   */\n      tag_49\n        /* \"#utility.yul\":1076:1077   */\n      0x00\n        /* \"#utility.yul\":1065:1074   */\n      dup4\n        /* \"#utility.yul\":1061:1078   */\n      add\n        /* \"#utility.yul\":1052:1058   */\n      dup5\n        /* \"#utility.yul\":992:1079   */\n      tag_31\n      jump\t// in\n    tag_49:\n        /* \"#utility.yul\":832:1086   */\n      swap3\n      swap2\n      pop\n      pop\n      jump\t// out\n        /* \"#utility.yul\":1092:1261   */\n    tag_32:\n        /* \"#utility.yul\":1176:1187   */\n      0x00\n        /* \"#utility.yul\":1210:1216   */\n      dup3\n        /* \"#utility.yul\":1205:1208   */\n      dup3\n        /* \"#utility.yul\":1198:1217   */\n      mstore\n        /* \"#utility.yul\":1250:1254   */\n      0x20\n        /* \"#utility.yul\":1245:1248   */\n      dup3\n        /* \"#utility.yul\":1241:1255   */\n      add\n        /* \"#utility.yul\":1226:1255   */\n      swap1\n      pop\n        /* \"#utility.yul\":1092:1261   */\n      swap3\n      swap2\n      pop\n      pop\n      jump\t// out\n        /* \"#utility.yul\":1267:1439   */\n    tag_33:\n        /* \"#utility.yul\":1407:1431   */\n      0x596f752063616e27742077697468647261772079657400000000000000000000\n        /* \"#utility.yul\":1403:1404   */\n      0x00\n        /* \"#utility.yul\":1395:1401   */\n      dup3\n        /* \"#utility.yul\":1391:1405   */\n      add\n        /* \"#utility.yul\":1384:1432   */\n      mstore\n        /* \"#utility.yul\":1267:1439   */\n      pop\n      jump\t// out\n        /* \"#utility.yul\":1445:1811   */\n    tag_34:\n        /* \"#utility.yul\":1587:1590   */\n      0x00\n        /* \"#utility.yul\":1608:1675   */\n      tag_53\n        /* \"#utility.yul\":1672:1674   */\n      0x16\n        /* \"#utility.yul\":1667:1670   */\n      dup4\n        /* \"#utility.yul\":1608:1675   */\n      tag_32\n      jump\t// in\n    tag_53:\n        /* \"#utility.yul\":1601:1675   */\n      swap2\n      pop\n        /* \"#utility.yul\":1684:1777   */\n      tag_54\n        /* \"#utility.yul\":1773:1776   */\n      dup3\n        /* \"#utility.yul\":1684:1777   */\n      tag_33\n      jump\t// in\n    tag_54:\n        /* \"#utility.yul\":1802:1804   */\n      0x20\n        /* \"#utility.yul\":1797:1800   */\n      dup3\n        /* \"#utility.yul\":1793:1805   */\n      add\n        /* \"#utility.yul\":1786:1805   */\n      swap1\n      pop\n        /* \"#utility.yul\":1445:1811   */\n      swap2\n      swap1\n      pop\n      jump\t// out\n        /* \"#utility.yul\":1817:2236   */\n    tag_19:\n        /* \"#utility.yul\":1983:1987   */\n      0x00\n        /* \"#utility.yul\":2021:2023   */\n      0x20\n        /* \"#utility.yul\":2010:2019   */\n      dup3\n        /* \"#utility.yul\":2006:2024   */\n      add\n        /* \"#utility.yul\":1998:2024   */\n      swap1\n      pop\n        /* \"#utility.yul\":2070:2079   */\n      dup2\n        /* \"#utility.yul\":2064:2068   */\n      dup2\n        /* \"#utility.yul\":2060:2080   */\n      sub\n        /* \"#utility.yul\":2056:2057   */\n      0x00\n        /* \"#utility.yul\":2045:2054   */\n      dup4\n        /* \"#utility.yul\":2041:2058   */\n      add\n        /* \"#utility.yul\":2034:2081   */\n      mstore\n        /* \"#utility.yul\":2098:2229   */\n      tag_56\n        /* \"#utility.yul\":2224:2228   */\n      dup2\n        /* \"#utility.yul\":2098:2229   */\n      tag_34\n      jump\t// in\n    tag_56:\n        /* \"#utility.yul\":2090:2229   */\n      swap1\n      pop\n        /* \"#utility.yul\":1817:2236   */\n      swap2\n      swap1\n      pop\n      jump\t// out\n        /* \"#utility.yul\":2242:2412   */\n    tag_35:\n        /* \"#utility.yul\":2382:2404   */\n      0x596f75206172656e277420746865206f776e6572000000000000000000000000\n        /* \"#utility.yul\":2378:2379   */\n      0x00\n        /* \"#utility.yul\":2370:2376   */\n      dup3\n        /* \"#utility.yul\":2366:2380   */\n      add\n        /* \"#utility.yul\":2359:2405   */\n      mstore\n        /* \"#utility.yul\":2242:2412   */\n      pop\n      jump\t// out\n        /* \"#utility.yul\":2418:2784   */\n    tag_36:\n        /* \"#utility.yul\":2560:2563   */\n      0x00\n        /* \"#utility.yul\":2581:2648   */\n      tag_59\n        /* \"#utility.yul\":2645:2647   */\n      0x14\n        /* \"#utility.yul\":2640:2643   */\n      dup4\n        /* \"#utility.yul\":2581:2648   */\n      tag_32\n      jump\t// in\n    tag_59:\n        /* \"#utility.yul\":2574:2648   */\n      swap2\n      pop\n        /* \"#utility.yul\":2657:2750   */\n      tag_60\n        /* \"#utility.yul\":2746:2749   */\n      dup3\n        /* \"#utility.yul\":2657:2750   */\n      tag_35\n      jump\t// in\n    tag_60:\n        /* \"#utility.yul\":2775:2777   */\n      0x20\n        /* \"#utility.yul\":2770:2773   */\n      dup3\n        /* \"#utility.yul\":2766:2778   */\n      add\n        /* \"#utility.yul\":2759:2778   */\n      swap1\n      pop\n        /* \"#utility.yul\":2418:2784   */\n      swap2\n      swap1\n      pop\n      jump\t// out\n        /* \"#utility.yul\":2790:3209   */\n    tag_22:\n        /* \"#utility.yul\":2956:2960   */\n      0x00\n        /* \"#utility.yul\":2994:2996   */\n      0x20\n        /* \"#utility.yul\":2983:2992   */\n      dup3\n        /* \"#utility.yul\":2979:2997   */\n      add\n        /* \"#utility.yul\":2971:2997   */\n      swap1\n      pop\n        /* \"#utility.yul\":3043:3052   */\n      dup2\n        /* \"#utility.yul\":3037:3041   */\n      dup2\n        /* \"#utility.yul\":3033:3053   */\n      sub\n        /* \"#utility.yul\":3029:3030   */\n      0x00\n        /* \"#utility.yul\":3018:3027   */\n      dup4\n        /* \"#utility.yul\":3014:3031   */\n      add\n        /* \"#utility.yul\":3007:3054   */\n      mstore\n        /* \"#utility.yul\":3071:3202   */\n      tag_62\n        /* \"#utility.yul\":3197:3201   */\n      dup2\n        /* \"#utility.yul\":3071:3202   */\n      tag_36\n      jump\t// in\n    tag_62:\n        /* \"#utility.yul\":3063:3202   */\n      swap1\n      pop\n        /* \"#utility.yul\":2790:3209   */\n      swap2\n      swap1\n      pop\n      jump\t// out\n        /* \"#utility.yul\":3215:3547   */\n    tag_24:\n        /* \"#utility.yul\":3336:3340   */\n      0x00\n        /* \"#utility.yul\":3374:3376   */\n      0x40\n        /* \"#utility.yul\":3363:3372   */\n      dup3\n        /* \"#utility.yul\":3359:3377   */\n      add\n        /* \"#utility.yul\":3351:3377   */\n      swap1\n      pop\n        /* \"#utility.yul\":3387:3458   */\n      tag_64\n        /* \"#utility.yul\":3455:3456   */\n      0x00\n        /* \"#utility.yul\":3444:3453   */\n      dup4\n        /* \"#utility.yul\":3440:3457   */\n      add\n        /* \"#utility.yul\":3431:3437   */\n      dup6\n        /* \"#utility.yul\":3387:3458   */\n      tag_28\n      jump\t// in\n    tag_64:\n        /* \"#utility.yul\":3468:3540   */\n      tag_65\n        /* \"#utility.yul\":3536:3538   */\n      0x20\n        /* \"#utility.yul\":3525:3534   */\n      dup4\n        /* \"#utility.yul\":3521:3539   */\n      add\n        /* \"#utility.yul\":3512:3518   */\n      dup5\n        /* \"#utility.yul\":3468:3540   */\n      tag_28\n      jump\t// in\n    tag_65:\n        /* \"#utility.yul\":3215:3547   */\n      swap4\n      swap3\n      pop\n      pop\n      pop\n      jump\t// out\n\n    auxdata: 0xa26469706673582212200298df8d8b8a9008b22a9562121967bdfeddbb1de80a1609982448bd8e314e7864736f6c63430008190033\n}\n",
				"bytecode": {
					"linkReferences": {},
					"object": "60806040526040516105ac3803806105ac833981810160405281019061002591906100ea565b804210610067576040517f08c379a000000000000000000000000000000000000000000000000000000000815260040161005e90610195565b60405180910390fd5b805f819055503360015f6101000a81548173ffffffffffffffffffffffffffffffffffffffff021916908373ffffffffffffffffffffffffffffffffffffffff160217905550506101b3565b5f80fd5b5f819050919050565b6100c9816100b7565b81146100d3575f80fd5b50565b5f815190506100e4816100c0565b92915050565b5f602082840312156100ff576100fe6100b3565b5b5f61010c848285016100d6565b91505092915050565b5f82825260208201905092915050565b7f556e6c6f636b2074696d652073686f756c6420626520696e20746865206675745f8201527f7572650000000000000000000000000000000000000000000000000000000000602082015250565b5f61017f602383610115565b915061018a82610125565b604082019050919050565b5f6020820190508181035f8301526101ac81610173565b9050919050565b6103ec806101c05f395ff3fe608060405234801561000f575f80fd5b506004361061003f575f3560e01c8063251c1aa3146100435780633ccfd60b146100615780638da5cb5b1461006b575b5f80fd5b61004b610089565b604051610058919061023e565b60405180910390f35b61006961008e565b005b610073610201565b6040516100809190610296565b60405180910390f35b5f5481565b5f544210156100d2576040517f08c379a00000000000000000000000000000000000000000000000000000000081526004016100c990610309565b60405180910390fd5b60015f9054906101000a900473ffffffffffffffffffffffffffffffffffffffff1673ffffffffffffffffffffffffffffffffffffffff163373ffffffffffffffffffffffffffffffffffffffff1614610161576040517f08c379a000000000000000000000000000000000000000000000000000000000815260040161015890610371565b60405180910390fd5b7fbf2ed60bd5b5965d685680c01195c9514e4382e28e3a5a2d2d5244bf59411b93474260405161019292919061038f565b60405180910390a160015f9054906101000a900473ffffffffffffffffffffffffffffffffffffffff1673ffffffffffffffffffffffffffffffffffffffff166108fc4790811502906040515f60405180830381858888f193505050501580156101fe573d5f803e3d5ffd5b50565b60015f9054906101000a900473ffffffffffffffffffffffffffffffffffffffff1681565b5f819050919050565b61023881610226565b82525050565b5f6020820190506102515f83018461022f565b92915050565b5f73ffffffffffffffffffffffffffffffffffffffff82169050919050565b5f61028082610257565b9050919050565b61029081610276565b82525050565b5f6020820190506102a95f830184610287565b92915050565b5f82825260208201905092915050565b7f596f752063616e277420776974686472617720796574000000000000000000005f82015250565b5f6102f36016836102af565b91506102fe826102bf565b602082019050919050565b5f6020820190508181035f830152610320816102e7565b9050919050565b7f596f75206172656e277420746865206f776e65720000000000000000000000005f82015250565b5f61035b6014836102af565b915061036682610327565b602082019050919050565b5f6020820190508181035f8301526103888161034f565b9050919050565b5f6040820190506103a25f83018561022f565b6103af602083018461022f565b939250505056fea26469706673582212200298df8d8b8a9008b22a9562121967bdfeddbb1de80a1609982448bd8e314e7864736f6c63430008190033",
					"opcodes": "PUSH1 0x80 PUSH1 0x40 MSTORE PUSH1 0x40 MLOAD PUSH2 0x5AC CODESIZE SUB DUP1 PUSH2 0x5AC DUP4 CODECOPY DUP2 DUP2 ADD PUSH1 0x40 MSTORE DUP2 ADD SWAP1 PUSH2 0x25 SWAP2 SWAP1 PUSH2 0xEA JUMP JUMPDEST DUP1 TIMESTAMP LT PUSH2 0x67 JUMPI PUSH1 0x40 MLOAD PUSH32 0x8C379A000000000000000000000000000000000000000000000000000000000 DUP2 MSTORE PUSH1 0x4 ADD PUSH2 0x5E SWAP1 PUSH2 0x195 JUMP JUMPDEST PUSH1 0x40 MLOAD DUP1 SWAP2 SUB SWAP1 REVERT JUMPDEST DUP1 PUSH0 DUP2 SWAP1 SSTORE POP CALLER PUSH1 0x1 PUSH0 PUSH2 0x100 EXP DUP2 SLOAD DUP2 PUSH20 0xFFFFFFFFFFFFFFFFFFFFFFFFFFFFFFFFFFFFFFFF MUL NOT AND SWAP1 DUP4 PUSH20 0xFFFFFFFFFFFFFFFFFFFFFFFFFFFFFFFFFFFFFFFF AND MUL OR SWAP1 SSTORE POP POP PUSH2 0x1B3 JUMP JUMPDEST PUSH0 DUP1 REVERT JUMPDEST PUSH0 DUP2 SWAP1 POP SWAP2 SWAP1 POP JUMP JUMPDEST PUSH2 0xC9 DUP2 PUSH2 0xB7 JUMP JUMPDEST DUP2 EQ PUSH2 0xD3 JUMPI PUSH0 DUP1 REVERT JUMPDEST POP JUMP JUMPDEST PUSH0 DUP2 MLOAD SWAP1 POP PUSH2 0xE4 DUP2 PUSH2 0xC0 JUMP JUMPDEST SWAP3 SWAP2 POP POP JUMP JUMPDEST PUSH0 PUSH1 0x20 DUP3 DUP5 SUB SLT ISZERO PUSH2 0xFF JUMPI PUSH2 0xFE PUSH2 0xB3 JUMP JUMPDEST JUMPDEST PUSH0 PUSH2 0x10C DUP5 DUP3 DUP6 ADD PUSH2 0xD6 JUMP JUMPDEST SWAP2 POP POP SWAP3 SWAP2 POP POP JUMP JUMPDEST PUSH0 DUP3 DUP3 MSTORE PUSH1 0x20 DUP3 ADD SWAP1 POP SWAP3 SWAP2 POP POP JUMP JUMPDEST PUSH32 0x556E6C6F636B2074696D652073686F756C6420626520696E2074686520667574 PUSH0 DUP3 ADD MSTORE PUSH32 0x7572650000000000000000000000000000000000000000000000000000000000 PUSH1 0x20 DUP3 ADD MSTORE POP JUMP JUMPDEST PUSH0 PUSH2 0x17F PUSH1 0x23 DUP4 PUSH2 0x115 JUMP JUMPDEST SWAP2 POP PUSH2 0x18A DUP3 PUSH2 0x125 JUMP JUMPDEST PUSH1 0x40 DUP3 ADD SWAP1 POP SWAP2 SWAP1 POP JUMP JUMPDEST PUSH0 PUSH1 0x20 DUP3 ADD SWAP1 POP DUP2 DUP2 SUB PUSH0 DUP4 ADD MSTORE PUSH2 0x1AC DUP2 PUSH2 0x173 JUMP JUMPDEST SWAP1 POP SWAP2 SWAP1 POP JUMP JUMPDEST PUSH2 0x3EC DUP1 PUSH2 0x1C0 PUSH0 CODECOPY PUSH0 RETURN INVALID PUSH1 0x80 PUSH1 0x40 MSTORE CALLVALUE DUP1 ISZERO PUSH2 0xF JUMPI PUSH0 DUP1 REVERT JUMPDEST POP PUSH1 0x4 CALLDATASIZE LT PUSH2 0x3F JUMPI PUSH0 CALLDATALOAD PUSH1 0xE0 SHR DUP1 PUSH4 0x251C1AA3 EQ PUSH2 0x43 JUMPI DUP1 PUSH4 0x3CCFD60B EQ PUSH2 0x61 JUMPI DUP1 PUSH4 0x8DA5CB5B EQ PUSH2 0x6B JUMPI JUMPDEST PUSH0 DUP1 REVERT JUMPDEST PUSH2 0x4B PUSH2 0x89 JUMP JUMPDEST PUSH1 0x40 MLOAD PUSH2 0x58 SWAP2 SWAP1 PUSH2 0x23E JUMP JUMPDEST PUSH1 0x40 MLOAD DUP1 SWAP2 SUB SWAP1 RETURN JUMPDEST PUSH2 0x69 PUSH2 0x8E JUMP JUMPDEST STOP JUMPDEST PUSH2 0x73 PUSH2 0x201 JUMP JUMPDEST PUSH1 0x40 MLOAD PUSH2 0x80 SWAP2 SWAP1 PUSH2 0x296 JUMP JUMPDEST PUSH1 0x40 MLOAD DUP1 SWAP2 SUB SWAP1 RETURN JUMPDEST PUSH0 SLOAD DUP2 JUMP JUMPDEST PUSH0 SLOAD TIMESTAMP LT ISZERO PUSH2 0xD2 JUMPI PUSH1 0x40 MLOAD PUSH32 0x8C379A000000000000000000000000000000000000000000000000000000000 DUP2 MSTORE PUSH1 0x4 ADD PUSH2 0xC9 SWAP1 PUSH2 0x309 JUMP JUMPDEST PUSH1 0x40 MLOAD DUP1 SWAP2 SUB SWAP1 REVERT JUMPDEST PUSH1 0x1 PUSH0 SWAP1 SLOAD SWAP1 PUSH2 0x100 EXP SWAP1 DIV PUSH20 0xFFFFFFFFFFFFFFFFFFFFFFFFFFFFFFFFFFFFFFFF AND PUSH20 0xFFFFFFFFFFFFFFFFFFFFFFFFFFFFFFFFFFFFFFFF AND CALLER PUSH20 0xFFFFFFFFFFFFFFFFFFFFFFFFFFFFFFFFFFFFFFFF AND EQ PUSH2 0x161 JUMPI PUSH1 0x40 MLOAD PUSH32 0x8C379A000000000000000000000000000000000000000000000000000000000 DUP2 MSTORE PUSH1 0x4 ADD PUSH2 0x158 SWAP1 PUSH2 0x371 JUMP JUMPDEST PUSH1 0x40 MLOAD DUP1 SWAP2 SUB SWAP1 REVERT JUMPDEST PUSH32 0xBF2ED60BD5B5965D685680C01195C9514E4382E28E3A5A2D2D5244BF59411B93 SELFBALANCE TIMESTAMP PUSH1 0x40 MLOAD PUSH2 0x192 SWAP3 SWAP2 SWAP1 PUSH2 0x38F JUMP JUMPDEST PUSH1 0x40 MLOAD DUP1 SWAP2 SUB SWAP1 LOG1 PUSH1 0x1 PUSH0 SWAP1 SLOAD SWAP1 PUSH2 0x100 EXP SWAP1 DIV PUSH20 0xFFFFFFFFFFFFFFFFFFFFFFFFFFFFFFFFFFFFFFFF AND PUSH20 0xFFFFFFFFFFFFFFFFFFFFFFFFFFFFFFFFFFFFFFFF AND PUSH2 0x8FC SELFBALANCE SWAP1 DUP2 ISZERO MUL SWAP1 PUSH1 0x40 MLOAD PUSH0 PUSH1 0x40 MLOAD DUP1 DUP4 SUB DUP2 DUP6 DUP9 DUP9 CALL SWAP4 POP POP POP POP ISZERO DUP1 ISZERO PUSH2 0x1FE JUMPI RETURNDATASIZE PUSH0 DUP1 RETURNDATACOPY RETURNDATASIZE PUSH0 REVERT JUMPDEST POP JUMP JUMPDEST PUSH1 0x1 PUSH0 SWAP1 SLOAD SWAP1 PUSH2 0x100 EXP SWAP1 DIV PUSH20 0xFFFFFFFFFFFFFFFFFFFFFFFFFFFFFFFFFFFFFFFF AND DUP2 JUMP JUMPDEST PUSH0 DUP2 SWAP1 POP SWAP2 SWAP1 POP JUMP JUMPDEST PUSH2 0x238 DUP2 PUSH2 0x226 JUMP JUMPDEST DUP3 MSTORE POP POP JUMP JUMPDEST PUSH0 PUSH1 0x20 DUP3 ADD SWAP1 POP PUSH2 0x251 PUSH0 DUP4 ADD DUP5 PUSH2 0x22F JUMP JUMPDEST SWAP3 SWAP2 POP POP JUMP JUMPDEST PUSH0 PUSH20 0xFFFFFFFFFFFFFFFFFFFFFFFFFFFFFFFFFFFFFFFF DUP3 AND SWAP1 POP SWAP2 SWAP1 POP JUMP JUMPDEST PUSH0 PUSH2 0x280 DUP3 PUSH2 0x257 JUMP JUMPDEST SWAP1 POP SWAP2 SWAP1 POP JUMP JUMPDEST PUSH2 0x290 DUP2 PUSH2 0x276 JUMP JUMPDEST DUP3 MSTORE POP POP JUMP JUMPDEST PUSH0 PUSH1 0x20 DUP3 ADD SWAP1 POP PUSH2 0x2A9 PUSH0 DUP4 ADD DUP5 PUSH2 0x287 JUMP JUMPDEST SWAP3 SWAP2 POP POP JUMP JUMPDEST PUSH0 DUP3 DUP3 MSTORE PUSH1 0x20 DUP3 ADD SWAP1 POP SWAP3 SWAP2 POP POP JUMP JUMPDEST PUSH32 0x596F752063616E27742077697468647261772079657400000000000000000000 PUSH0 DUP3 ADD MSTORE POP JUMP JUMPDEST PUSH0 PUSH2 0x2F3 PUSH1 0x16 DUP4 PUSH2 0x2AF JUMP JUMPDEST SWAP2 POP PUSH2 0x2FE DUP3 PUSH2 0x2BF JUMP JUMPDEST PUSH1 0x20 DUP3 ADD SWAP1 POP SWAP2 SWAP1 POP JUMP JUMPDEST PUSH0 PUSH1 0x20 DUP3 ADD SWAP1 POP DUP2 DUP2 SUB PUSH0 DUP4 ADD MSTORE PUSH2 0x320 DUP2 PUSH2 0x2E7 JUMP JUMPDEST SWAP1 POP SWAP2 SWAP1 POP JUMP JUMPDEST PUSH32 0x596F75206172656E277420746865206F776E6572000000000000000000000000 PUSH0 DUP3 ADD MSTORE POP JUMP JUMPDEST PUSH0 PUSH2 0x35B PUSH1 0x14 DUP4 PUSH2 0x2AF JUMP JUMPDEST SWAP2 POP PUSH2 0x366 DUP3 PUSH2 0x327 JUMP JUMPDEST PUSH1 0x20 DUP3 ADD SWAP1 POP SWAP2 SWAP1 POP JUMP JUMPDEST PUSH0 PUSH1 0x20 DUP3 ADD SWAP1 POP DUP2 DUP2 SUB PUSH0 DUP4 ADD MSTORE PUSH2 0x388 DUP2 PUSH2 0x34F JUMP JUMPDEST SWAP1 POP SWAP2 SWAP1 POP JUMP JUMPDEST PUSH0 PUSH1 0x40 DUP3 ADD SWAP1 POP PUSH2 0x3A2 PUSH0 DUP4 ADD DUP6 PUSH2 0x22F JUMP JUMPDEST PUSH2 0x3AF PUSH1 0x20 DUP4 ADD DUP5 PUSH2 0x22F JUMP JUMPDEST SWAP4 SWAP3 POP POP POP JUMP INVALID LOG2 PUSH5 0x6970667358 0x22 SLT KECCAK256 MUL SWAP9 0xDF DUP14 DUP12 DUP11 SWAP1 ADDMOD 0xB2 0x2A SWAP6 PUSH3 0x121967 0xBD INVALID 0xDD 0xBB SAR 0xE8 EXP AND MULMOD SWAP9 0x24 BASEFEE 0xBD DUP15 BALANCE 0x4E PUSH25 0x64736F6C634300081900330000000000000000000000000000 "
				},
				"gasEstimates": {
					"creation": {
						"codeDepositCost": "200800",
						"executionCost": "infinite",
						"totalCost": "infinite"
					},
					"external": {
						"owner()": "2530",
						"unlockTime()": "2402",
						"withdraw()": "infinite"
					}
				},
				"methodIdentifiers": {
					"owner()": "8da5cb5b",
					"unlockTime()": "251c1aa3",
					"withdraw()": "3ccfd60b"
				}
			},
			"storageLayout": {
				"storage": [
					{
						"astId": 3,
						"contract": "backend/contracts/Lock.sol:Lock",
						"label": "unlockTime",
						"offset": 0,
						"slot": "0",
						"type": "t_uint256"
					},
					{
						"astId": 5,
						"contract": "backend/contracts/Lock.sol:Lock",
						"label": "owner",
						"offset": 0,
						"slot": "1",
						"type": "t_address_payable"
					}
				],
				"types": {
					"t_address_payable": {
						"encoding": "inplace",
						"label": "address payable",
						"numberOfBytes": "20"
					},
					"t_uint256": {
						"encoding": "inplace",
						"label": "uint256",
						"numberOfBytes": "32"
					}
				}
			},
			"userdoc": {
				"kind": "user",
				"methods": {},
				"version": 1
			}
		}
	}
}